:020000040800F2
:1000000090070020311300089702000899020008A9
:100010009D020008A1020008A502000800000000DF
:10002000000000000000000000000000A90200081D
:10003000AB02000800000000AD020008AF0200089B
:100040004B1300084B1300084B1300084B13000818
:100050004B1300084B1300084B1300084B13000808
:100060004B1300084B1300084B1300084B130008F8
:100070004B1300084B1300084B1300084B130008E8
:100080004B1300084B1300084B1300084B130008D8
:100090004B1300084B1300084B1300084B130008C8
:1000A000770E0008390F00084B1300084B130008A7
:1000B0004B1300084B1300084B1300084B130008A8
:1000C0004B1300084B1300084B1300084B13000898
:1000D0004B130008A71200084B1300084B1300082D
:1000E0004B1300084B1300084B1300084B13000878
:1000F0004B1300084B1300084B1300084B13000868
:100100004B1300084B1300084B1300084B13000857
:100110004B1300084B1300084B1300081309000889
:100120004B1300084B1300084B1300084B13000837
:100130004B1300084B1300084B1300084B13000827
:100140004B1300084B1300084B1300084B13000817
:100150004B1300084B1300084B1300084B13000807
:100160004B1300084B1300084B1300084B130008F7
:100170004B1300084B1300084B1300084B130008E7
:100180004B1300084B13000800F002F800F03CF895
:100190000AA090E8000C82448344AAF10107DA45E2
:1001A00001D100F031F8AFF2090EBAE80F0013F0F8
:1001B000010F18BFFB1A43F001031847F82C000089
:1001C000182D0000103A24BF78C878C1FAD8520719
:1001D00024BF30C830C144BF04680C6070470000C1
:1001E0000023002400250026103A28BF78C1FBD840
:1001F000520728BF30C148BF0B6070471FB502F0DF
:1002000053FE1FBD10B510BD02F01BFE1146FFF7D7
:10021000F5FF00F008F802F039FE03B4FFF7F2FF33
:1002200003BC00F0E1FF4FF4A06001F0A1F8A820AA
:1002300000F058FF4FF4E13000F0E3FF532140F2AB
:10024000F31000F03DF9532140F2F31000F082F971
:10025000532140F2F31000F0C7F953214FF0FF3063
:1002600000F054FD53214FF0FF3000F0A9FD00F0E5
:10027000B6FA00F004FA00F05AFA532141F288303D
:1002800000F005FB00F0B9FE00F0ECFB02E00420FA
:1002900000F07DFCFBE7704700BFFEE700BFFEE714
:1002A00000BFFEE700BFFEE770477047704770472A
:1002B0000CB50020019000907648006840F4803032
:1002C0007449086000BF7348006800F40030009073
:1002D0000198401C0190009818B90198B0F5A04F02
:1002E000F1D16C48006800F4003010B1012000909A
:1002F00001E0002000900098012846D16548403078
:10030000006840F0805063494031086062480068EE
:1003100040F44040604908605E48083000685D492C
:10032000083108600846006840F40040086008464C
:10033000006840F4A05008605848091F0860081F72
:10034000006840F08070091F086000BF51480068D5
:1003500000F000700028F9D040F2057050490860A4
:100360004C480830006820F003004A490831086012
:100370000846006840F00200086000BF45480830A9
:10038000006800F00C000828F8D10CBD10B54548F5
:10039000006840F47000434908603E48006840F03F
:1003A00001003C49086000203A490831086039489A
:1003B00000683D490840374908603C48091D08600D
:1003C000081F006820F48020091F086000203149C0
:1003D0000C310860FFF76CFF4FF000603149803945
:1003E000086010BD70B50020002202230024022105
:1003F000284D08352D6805F00C0020B1042806D0E2
:10040000082834D107E02A4D2A4E356033E02A4DC2
:10041000284E35602FE01F4D2D1D2D68C5F38054EB
:100420001C4D2D1D2D6805F03F0154B1224DB5FB2B
:10043000F1F5184E361D3668C6F3881605FB06F230
:1004400009E01B4DB5FBF1F5124E361D3668C6F3BB
:10045000881605FB06F20F4D2D1D2D68C5F30145CD
:100460006D1C6B00B2FBF3F5124E356003E0104DCE
:10047000104E356000BF00BF064D08352D68C5F32E
:1004800003150E4E705D0B4D2D68C540094E35604D
:1004900070BD000000380240007000400854400762
:1004A000003C024088ED00E0FFFFF6FE1030002423
:1004B0000024F4000000002000127A000400002054
:1004C00030B58BB004460D460121080202F0A9FBAD
:1004D0000121084602F05CFB09220721FE4801F0D9
:1004E000C8F88020099002208DF8280003208DF89C
:1004F000290001208DF82A008DF82B0009A9F64863
:1005000001F02CF8A8B2ADF818000020ADF81A00E0
:100510000794ADF8200006A9F04801F0BAFB60206E
:10052000ADF804000120ADF806000220ADF810007F
:1005300001A9EA4801F042FC0821E84801F0CBFD9E
:100540000121E64801F010FC0121E44801F02AFCF9
:100550000BB030BD30B58BB004460D460121802074
:1005600002F05FFB0121084602F012FB092206217E
:10057000D94801F07EF84020099002208DF828002B
:1005800003208DF8290001208DF82A008DF82B001A
:1005900009A9D14800F0E2FFA8B2ADF81800002088
:1005A000ADF81A000794ADF8200006A9CC4801F078
:1005B00070FB6020ADF804000120ADF806000220B9
:1005C000ADF8100001A9C64801F0F8FB0821C448A5
:1005D00001F081FD0121C24801F0C6FB0121C048A4
:1005E00001F0E0FB0BB030BD30B58BB004460D46DA
:1005F0000121402002F015FB0121022002F0C8FA7F
:1006000009220E21B74801F034F84FF480400990D8
:1006100002208DF8280003208DF8290001208DF894
:100620002A008DF82B0009A9AE4800F097FFA8B268
:10063000ADF818000020ADF81A000794ADF82000BE
:1006400006A9A94801F025FB6020ADF804000120AF
:10065000ADF806000220ADF8100001A9A24801F093
:10066000ADFB0821A04801F036FD01219E4801F0B4
:100670007BFB01219C4801F095FB0BB030BD00B520
:1006800089B00121042002F0CCFA0121022002F0FD
:100690007FFA02220621934800F0EBFF0222072195
:1006A000904800F0E6FFC020079002208DF820005F
:1006B00003208DF8210000208DF8220001208DF804
:1006C000230007A9874800F049FF0020ADF810007B
:1006D000ADF8120042F2107005900020ADF818003D
:1006E00000231A460321814802F047F804A97F48F5
:1006F00001F0CFFA01A801F0DAFE0020ADF80C00FD
:1007000001A97A4801F09CFE0121784801F076FFAA
:1007100001221146754801F05DFF00207349243124
:1007200008600121714801F03DFB09B000BD00B532
:1007300089B00121022002F074FA0121042002F0A4
:1007400027FA022206216A4800F093FF02220721BD
:10075000674800F08EFFC020079002208DF820002F
:1007600003208DF8210000208DF8220001208DF853
:10077000230007A95E4800F0F1FE0020ADF810004C
:10078000ADF8120042F2107005900020ADF818008C
:1007900000231A460321574801F0EFFF04A95548EA
:1007A00001F077FA01A801F082FE0020ADF80C00FC
:1007B00001A9504801F044FE01214E4801F01EFFFE
:1007C000012211464B4801F005FF00204949243120
:1007D00008600121474801F0E5FA09B000BD00B505
:1007E00089B00121082002F01CFA0121084602F01C
:1007F000CFF902220021384800F03BFF02220121FC
:10080000354800F036FF0320079002208DF82000C5
:1008100003208DF8210000208DF8220001208DF8A2
:10082000230007A92C4800F099FE0020ADF8100025
:10083000ADF8120042F2107005900020ADF81800DB
:1008400000231A4603212C4801F097FF04A92A48E7
:1008500001F01FFA01A801F02AFE0020ADF80C00FB
:1008600001A9254801F0ECFD0121234801F0C6FE55
:1008700001221146204801F0ADFE00201E4924311E
:10088000086001211C4801F08DFA09B000BD7FB558
:1008900005460C460121202002F0C3F90295ADF86F
:1008A00004400020ADF80600ADF80C0001A9134883
:1008B00001F0EFF901221146104801F08BFE0121F1
:1008C0000E4801F06FFA37208DF8000001208DF8F6
:1008D0000100032014E0000000000240002000405E
:1008E000001C0040000402400018004000080040C6
:1008F0000008024000040040000C004000140040CA
:100900008DF8020001208DF80300684600F035FDE7
:100910007FBD10B50121E74801F073FE012876D1B3
:10092000E5480068E5490880E5480068E549088031
:10093000E5480068E5490880E0480088E4490988FE
:10094000401AB0F57A7F0ADDDC480088E049098862
:10095000401AA0F51C501038DE49086018E0DC4849
:100960000088D6490988401AB0F57A7F09DDD84851
:100970000088C0F57A70D14909880844D5490860D3
:1009800006E0CE480088D2490988401AD14908605B
:10099000CC480088D0490988401AB0F57A7F0ADD32
:1009A000C8480088CC490988401AA0F51C50103866
:1009B000C849086018E0C8480088C2490988401A38
:1009C000B0F57A7F09DDC4480088C0F57A70BD496A
:1009D00009880844C149086006E0BA480088BE4951
:1009E0000988401ABD490860B8480088BC49098890
:1009F000401AB0F57A7F0BDDB4480088B849098801
:100A0000401AA0F51C501038B649086019E024E0DF
:100A1000B3480088AD490988401AB0F57A7F09DDEE
:100A2000AF480088C0F57A70A84909880844AD49E4
:100A3000086006E0A5480088A9490988401AA94924
:100A400008609E480088A24908809E480088A24904
:100A500008809E480088A24908800121954801F03D
:100A6000E1FD10BD1CB50121102002F091F84FF4FA
:100A70007C50009001208DF8040003208DF80500C3
:100A800001208DF806008DF807006946964800F0B1
:100A900065FD0020954908609549C1F8A402934975
:100AA00008310860091D0860091D08609049C1F8F7
:100AB000B4021CBD10B52DED048BB0EE408AF0EEF3
:100AC000608AB0EE419AB0EE491AF0EE680AB0EED4
:100AD000480A8848006800F0FDFAB0EE491AF0EEC6
:100AE000680AB0EE480A8448006800F0F3FAB0EEF5
:100AF000491AF0EE680AB0EE480A8048006800F033
:100B0000E9FABDEC048B10BD10B50446002077490E
:100B100008607749C1F8A402744908310860091DCA
:100B20000860091D0860091D0860002171480068FF
:100B300000F094FA00217048006800F08FFA00215C
:100B40006E48006800F08AFA10BD70B505460C4684
:100B500014B92846FFF7D8FF012D04D0022D08D084
:100B6000032D12D10BE0A1B26248006800F076FAC2
:100B70000BE0A1B26048006800F070FA05E0A1B295
:100B80005E48006800F06AFA00BF00BF70BD10B593
:100B90000446012C06D0022C24D0032C44D0042C73
:100BA0001FD163E00020514908605149C1F8A402F7
:100BB0004E49083108600120091D08600020091D08
:100BC000086001204A49C1F8B40296214C4801F05E
:100BD0004EFA3A214B4801F04AFA32214A4801F0D4
:100BE00046FA65E00020414908604149C1F8A40285
:100BF00001203E49083108600020091D08600120DD
:100C0000091D086000203A49C1F8B4024FF4AF71E1
:100C10003B4801F02CFA3A213A4801F028FA3221F7
:100C2000394801F024FA43E00120304908600020EF
:100C30002F49C1F8A40201202C4908310860002086
:100C4000091D0860091D086001202949C1F8B40286
:100C5000C8212B4801F00BFAD7212A4801F007FAE6
:100C600040F21F11284801F002FA21E000201F493C
:100C7000086001201E49C1F8A40200201B49083168
:100C800008600120091D0860091D0860002018493E
:100C9000C1F8B402BE211A4801F0E9F94FF4A0717D
:100CA000184801F0E4F9DC21174801F0E0F900BF31
:100CB00000BF10BD00140040240400401A000020B2
:100CC000240800401C000020240C00401E000020CE
:100CD0001400002020000020160000202400002026
:100CE000180000202800002000100240A00242420C
:100CF000000042422C000020300000203400002080
:100D000000200040001C00400018004030B589B0B1
:100D100004460D460121080401F094FF0121102032
:100D200001F036FF2020079002208DF820000320DC
:100D30008DF8210000208DF8220002208DF823007C
:100D400007A9BB4800F00AFC03220521B84800F0BF
:100D500090FCADF810500020ADF812000594ADF8ED
:100D6000180004A9B34800F094FF0020ADF800007B
:100D7000ADF802000120ADF804000020ADF8060037
:100D8000ADF808006946AB4801F05AFB0122032187
:100D9000A84801F01FFC0121A64801F003F8182023
:100DA0008DF80C0002208DF80D0000208DF80E004B
:100DB00001208DF80F0003A800F0DFFA09B030BD64
:100DC00030B589B004460D460121480401F03AFFD0
:100DD0000121022001F0DCFE4FF480700790022018
:100DE0008DF8200003208DF8210000208DF82200CE
:100DF00002208DF8230007A98F4800F0AFFB0322E3
:100E000008218D4800F035FCADF810500020ADF8F9
:100E100012000594ADF8180004A9884800F039FFC5
:100E20000020ADF80000ADF802000120ADF804008C
:100E30000020ADF80600ADF8080069467F4801F0D3
:100E4000FFFA012203217D4801F0C4FB01217B4808
:100E500000F0A8FF19208DF80C0002208DF80D007D
:100E600000208DF80E0001208DF80F0003A800F07F
:100E700084FA09B030BD10B57148007800F08000E8
:100E8000002854D101216B4801F0BBFBD0B16C4864
:100E9000007800F04000A8B16948007800F03F00F9
:100EA0003F280AD16648007840F080006449087005
:100EB0004FF0FF306349086004E061480078401C4F
:100EC0005F49087002215B4801F09BFB78B35C48E6
:100ED000007800F0400078B15948007840F0800078
:100EE00057490870534801F029FB56490860002112
:100EF000504801F072F91AE0002051490870514938
:100F000008604F48007840F040004D4908700021CB
:100F1000484800F047FF0021464800F003FF022147
:100F2000444801F05AF90121424800F03BFF0321F7
:100F3000404801F077FB10BD10B54348007800F041
:100F40008000002854D101213C4801F05AFBD0B167
:100F50003D48007800F04000A8B13B48007800F020
:100F60003F003F280AD13848007840F080003649D9
:100F700008704FF0FF303549086004E032480078CF
:100F8000401C3149087002212C4801F03AFB78B32B
:100F90002D48007800F0400078B12B48007840F0F0
:100FA000800029490870254801F0C8FA27490860DF
:100FB0000021224801F011F91AE0002022490870AE
:100FC000224908602048007840F040001E4908701F
:100FD00000211A4800F0E6FE0021184800F0A2FEA9
:100FE0000221164801F0F9F80121144800F0DAFE58
:100FF0000321124801F016FB10BD1CB50121102081
:1010000001F0C6FD0C20009001208DF804000320A3
:101010008DF8050001208DF806008DF8070069465F
:10102000034800F09BFA0C21014800F015FB1CBDA1
:101030000010024000400140000402400044014012
:10104000380000203C000020400000204400002028
:1010500000210161416181610160704700B5024674
:101060000B461360002010615061906113B9104667
:10107000FFF7EEFF00BD10B502460C46106808B938
:10108000002010BD1068011B106908441061D2EDEA
:10109000020A92ED040AB8EEC00A60EE800A92EDF0
:1010A000011A00EE101AF8EEC01AB0EE600A01EE56
:1010B000210A92ED031A5069081A00EE900AF8EE20
:1010C000E00A01EE200ABDEEC00A10EE103A5161AE
:1010D0001846D6E780ED010AC0ED020A80ED031A3A
:1010E0007047000010B504466FF0040000F092F95C
:1010F000E11704EB5171C1F3C701394A1170104671
:10110000007800EB4001C1EBC0104FF6FF7101EA1F
:10111000C0003449088010BD0146314A12784A4364
:101120004FF0E0235A6100229A611A46126942F098
:1011300001021A6100BF4FF0E022106900F00102C5
:101140001AB100F48032002AF5D04FF0E022126983
:1011500022F001024FF0E0231A6100229A617047E9
:101160000146204A12884A434FF0E0235A61002288
:101170009A611A46126942F001021A6100BF4FF0EB
:10118000E022106900F001021AB100F48032002A56
:10119000F5D04FF0E022126922F001024FF0E02377
:1011A0001A6100229A61704770B504464FF40770C7
:1011B00094FBF0F0C6B24FF4077094FBF0F100FB23
:1011C000114085B205E04FF40770FFF7C9FF701EAC
:1011D000C6B2002EF7D115B12846FFF7C1FF70BD8A
:1011E000480000204A00002000BF704700BF4C4A62
:1011F000128802F04002002AF9D0C2B2484B9A800D
:10120000704710B588B004460121084601F0C0FCC3
:101210000121102001F016FD07220921414800F0AC
:1012200028FA07220A213F4800F023FA4FF4C06051
:10123000069002208DF81C008DF81D0000208DF80E
:101240001E0001208DF81F0006A9364800F086F91F
:1012500002940020ADF80C00ADF80E00ADF81000BF
:10126000ADF814000C20ADF8120002A92C4800F0D3
:10127000A0FA01212A4800F024FB012240F2255166
:10128000274800F0D4FB25208DF8040003208DF8BA
:1012900005008DF8060001208DF8070001A800F078
:1012A0006CF808B010BD10B540F225511C4800F094
:1012B000F9FB10B31A4800F033FBC4B21A48008897
:1012C00000F40040C8B91848008800F4804060B1BC
:1012D0000A2C03D000201449088020E0124800881E
:1012E00040F400401049088019E00D2C06D10E484A
:1012F000008840F480400C49088010E00A480088CB
:10130000C0F30D0009490C5407480088401C0649E9
:10131000088008460088C72801DD0020088010BD2D
:101320000010014000000240500000206400002036
:101330000948804709480047FEE7FEE7FEE7FEE769
:10134000FEE7FEE7FEE7FEE7FEE7FEE704480549A5
:10135000054A064B704700008D030008890100080C
:1013600090010020900700209003002090030020AF
:1013700032490143324A1160704770B500210023A1
:101380000F22C4781CB32E4C246804F4E064C4F526
:10139000E064C4F30721C1F10404E3B20A414478D4
:1013A0009C40E1B28478144021430C07210E254C67
:1013B00005786155047804F01F050124AC400578D8
:1013C0006D11AD0005F1E025C5F8004109E0047894
:1013D00004F01F050124AC401B4D0678761145F83A
:1013E000264070BD194A0A400243154B1B1F1A6064
:1013F000704739B1124A121D12680243104B1B1D6F
:101400001A6006E00E4A121D126882430C4B1B1D27
:101410001A607047042808D14FF0E021096941F0B3
:1014200004014FF0E022116107E04FF0E02109696B
:1014300021F004014FF0E022116170470000FA052D
:101440000CED00E000E400E080E100E080FFFF1F21
:1014500010B504469848844208D10121084601F09D
:1014600002FC0021012001F0FEFB76E0934884425B
:1014700008D10121022001F0F6FB0021022001F039
:10148000F2FB6AE08E48844208D10121042001F079
:10149000EAFB0021042001F0E6FB5EE0894884427B
:1014A00008D10121082001F0DEFB0021082001F015
:1014B000DAFB52E08448844208D10121102001F077
:1014C000D2FB0021102001F0CEFB46E07F48844291
:1014D00008D10121202001F0C6FB0021202001F0CD
:1014E000C2FB3AE07A48844208D10121402001F051
:1014F000BAFB0021402001F0B6FB2EE07548844283
:1015000008D10121802001F0AEFB0021802001F0F4
:10151000AAFB22E07048844208D10121801501F025
:10152000A2FB0021A01501F09EFB16E06B4884424F
:1015300008D10121401501F096FB0021601501F052
:1015400092FB0AE06648844207D10121001501F0B0
:101550008AFB0021201501F086FB10BDF0B50A467C
:1015600000210023002400BF3DE0012505FA01F31E
:10157000156805EA03049C4234D105684F00032630
:10158000BE40B543056015794E00B5400668354349
:1015900005601579012D02D01579022D16D18568C7
:1015A0004F000326BE40B543856055794E00B540D7
:1015B000866835438560456801268E40B5434560A1
:1015C000456896798E40B6B235434560C5684F0090
:1015D0000326BE40B543C560D5794E00B540C66808
:1015E0003543C560491C1029BFD3F0BD4FF6FF71CC
:1015F00001600021017141718171C171704708B5AD
:101600004FF480320092009A0A430092009AC2611D
:10161000C161009AC261C2690092C269009208BDAC
:101620000246002013690B400BB1012000E00020AE
:1016300070470146086980B270470246002053692E
:101640000B400BB1012000E00020704701464869C3
:1016500080B2704701837047418370470AB10183AC
:1016600000E0418370474161704742694A404261EE
:101670007047F0B5002300244D07ED0E02FA05F384
:10168000CE1000F1200555F826504E07F70E0F2614
:10169000BE40B543CF1000F1200646F82750CE10CB
:1016A00000F1200555F8265045EA0304CE1000F15C
:1016B000200545F82640F0BD00000240000402402D
:1016C00000080240000C02400010024000140240DA
:1016D00000180240001C024000200240002402408A
:1016E0000028024010B50446FA48844208D101217E
:1016F000102001F0FCFA0021102001F0F8FA57E068
:10170000F548844209D10121480401F0DFFA0021A3
:101710004FF4003001F0DAFA4AE0F048844209D18F
:101720000121880401F0D2FA00214FF4802001F059
:10173000CDFA3DE0EA48844209D10121C80401F014
:10174000C5FA00214FF4002001F0C0FA30E0E5486E
:10175000844209D10121080501F0B8FA00214FF4B3
:10176000801001F0B3FA23E0DF48844208D1012160
:10177000202001F0BCFA0021202001F0B8FA17E087
:10178000DA48844209D10121880701F09FFA00213B
:101790004FF0804001F09AFA0AE0D548844207D120
:1017A0000121400501F092FA0021600501F08EFA56
:1017B00010BD2DE9FF4705460E460024A14600BF97
:1017C000A046B08900B100BF2C8A24F44054F088B0
:1017D00004432C82AC8941F20C608443B088318987
:1017E0000843718908430443AC81AC8A24F44074F3
:1017F000B0890443AC82684601F0F9F8B5488542E7
:1018000002D0B948854202D1DDF80C9001E0DDF844
:101810000890A88900F4004040B109EBC90000EB32
:10182000091031684900B0FBF1F707E009EBC90086
:1018300000EB091031688900B0FBF1F76420B7FBB9
:10184000F0F004012009642101FB1078A88900F45C
:10185000004040B1322000EBC800B0FBF1F000F0D6
:101860000700044308E0322000EB08106421B0FBBD
:10187000F1F000F00F0004432C81BDE8FF874FF426
:101880001651016000218180C18001810C214181BC
:1018900000218181704710B502460020108A20F493
:1018A00070600B884C8823438C882343CC88234367
:1018B0001843108210BD0021018041808180C180C9
:1018C000704721B1828942F40052828104E082890A
:1018D0004DF6FF731A4082817047028B02F47F42FB
:1018E0000283028B0A430283704721B1828942F44A
:1018F0000042828103E08289C2F30E028281704736
:1019000021B1828A42F40062828204E0828A4FF22C
:10191000FF731A4082827047C1F3080282807047C9
:1019200001468888C0F308007047028A4FF6F073BA
:101930001A400282028A0A430282704721B18289D8
:1019400042F00202828104E082894FF6FD731A4060
:101950008281704782894FF2FF731A4082818289A7
:101960000A4382817047028A4FF6DF731A4002826F
:10197000028A0A430282704721B1028A42F48042FD
:10198000028204E0028A4BF6FF731A40028270471B
:10199000818941F001018181704721B1828A42F041
:1019A0000802828204E0828A4FF6F7731A4082822C
:1019B0007047028BD2B20283028B42EA0122028379
:1019C000704721B1828A42F02002828204E0828A3A
:1019D0004FF6DF731A408282704721B1828A42F04B
:1019E0001002828204E0828A4FF6EF731A408282EC
:1019F0007047828A4FF6FB731A408282828A0A43BA
:101A00008282704721B1828A42F00202828204E01F
:101A1000828A4FF6FD731A40828270471AB1838A18
:101A20000B43838202E0838A8B4383827047F0B545
:101A30000346002400260025002040F66A17B9421C
:101A400000D100BF1846C1F3421401F01F06012760
:101A500007FA06F5012C01D10C3004E0022C01D16B
:101A6000103000E014301AB107682F43076002E01D
:101A70000768AF430760F0BD02460020B1F5007F64
:101A800000D100BF13880B400BB1012000E0002003
:101A9000704701F40072B2F5007F00D100BFCA4365
:101AA0000280704770B50246002400230025002004
:101AB00040F66A16B14200D100BFC1F3421501F0F1
:101AC0001F03012606FA03F3012D13D19689334033
:101AD00017E00000001001400044004000480040B2
:101AE000004C0040005000400014014000780040CD
:101AF000007C0040022D02D1168A334001E0968A14
:101B000033400C12012606FA04F41688344013B14F
:101B10000CB1012000E0002070BD10B500220023B0
:101B200040F66A14A14200D100BF0A120124944079
:101B3000A3B2DC43048010BD10B50446FE488442C5
:101B400008D10121084601F0D2F80021012001F05E
:101B5000CEF89DE0B4F1804F08D10121084601F094
:101B6000B5F80021012001F0B1F891E0F34884427A
:101B700008D10121022001F0A9F80021022001F082
:101B8000A5F885E0EE48844208D10121042001F047
:101B90009DF80021042001F099F879E0E948844299
:101BA00008D10121082001F091F80021082001F05E
:101BB0008DF86DE0E448844208D10121102001F045
:101BC00085F80021102001F081F861E0DF488442AF
:101BD00008D10121202001F079F80021202001F016
:101BE00075F855E0DA48844208D10121022001F05D
:101BF0007EF80021022001F07AF849E0D5488442BD
:101C000009D10121080401F072F800214FF480305D
:101C100001F06DF83CE0D048844209D1012148042C
:101C200001F065F800214FF4003001F060F82FE07A
:101C3000CA48844209D10121880401F058F80021E2
:101C40004FF4802001F053F822E0C548844208D1C7
:101C50000121402001F03AF80021402001F036F83F
:101C600016E0C048844208D10121802001F02EF8FE
:101C70000021802001F02AF80AE0BB48844207D105
:101C80000121801501F022F80021A01501F01EF8B5
:101C900010BD00220288A84B98420ED0AC4B98424F
:101CA0000BD0B0F1804F08D0A44B984205D0A44B84
:101CB000984202D0A34B984204D14FF68F731A403A
:101CC0004B881A43A04B984207D0A04B984204D0AF
:101CD0004FF6FF431A400B891A4302804B68C362D8
:101CE0000B880385944B984202D0994B984201D1BE
:101CF0008B7A03860123838270474FF0FF31416066
:101D000000210180018141808172704701858282BA
:101D100070470A46002101884FF68F73194011431E
:101D20000180704741627047C16270470146486A4E
:101D300070470146088D704721B1028842F00202C7
:101D4000028004E002884FF6FD731A40028070475B
:101D500021B1028842F00402028004E002884FF6BA
:101D6000FB731A400280704721B1028842F0800262
:101D7000028004E002884FF67F731A4002807047A9
:101D800002884FF6F7731A40028002880A430280E5
:101D9000704702884FF6FF431A40028002880A43C8
:101DA0000280704721B1028842F00102028004E003
:101DB00002884FF6FE731A400280704770B5002407
:101DC00000220023058C4FF6FE7635400584028CF8
:101DD0008388048B4FF68F752C40B51E2C400D88E0
:101DE0002C43751E2A408D892A434D882A43524D23
:101DF000A84202D0564DA84213D14FF6F7752A409B
:101E0000CD892A434FF6FB752A408D882A434FF629
:101E1000FF652B404FF6FF552B400D8A2B434D8A13
:101E20002B43838004838D684563028470BD70B545
:101E3000002400220023058C4FF6EF763540058400
:101E4000028C8388048B48F6FF752C404FF6FF45C3
:101E50002C400D884FF6FF7606EA05252C434FF6F9
:101E6000DF752A408D8906EA05152A434D8806EA62
:101E700005152A43304DA84202D0354DA8421DD148
:101E80004FF67F752A40CD894FF6FF7606EA051595
:101E90002A434FF6BF752A408D8806EA05152A4366
:101EA0004FF6FF352B404FF2FF752B400D8A06EAA7
:101EB00085052B434D8A06EA85052B4383800483E1
:101EC0008D688563028470BD70B5002400220023F4
:101ED000058C4FF6FF6635400584028C8388848B21
:101EE0004FF68F752C404FF6FC752C400D882C4317
:101EF0004FF6FF552A408D894FF6FF7606EA0525F5
:101F00002A434D8806EA05252A430B4DA84202D0F4
:101F10000F4DA84238D14FF2FF752A40CD894FF6B8
:101F2000FF7606EA05252A434FF6FF352A408D88BD
:101F300006EA05252A4319E000000140000400409C
:101F400000080040000C0040001000400014004059
:101F500000040140004001400044014000480140AD
:101F600000180040001C0040002000404EF6FF75A5
:101F70002B404DF6FF752B400D8A06EA05152B43C5
:101F80004D8A06EA05152B43838084838D68C563DB
:101F9000028470BD70B5002200230024058C4EF62B
:101FA000FF7635400584038C8488828B48F6FF7564
:101FB0002A404FF6FF452A400D884FF6FF7606EA85
:101FC00005252A434DF6FF752B408D8906EA053518
:101FD0002B434D8806EA05352B43FE4DA84202D01F
:101FE000FD4DA84208D14BF6FF752C400D8A4FF6E7
:101FF000FF7606EA85152C43848082838D6805640C
:10200000038470BD002101804180818081608181D5
:10201000C18101824182704770B5034600200024CF
:102020001846183001258D40ACB21D8CA5431D8487
:1020300009B108290AD100EB610005684FF68F76D7
:10204000354005600568154305600FE00D1FC5F3B9
:102050004E052844056848F6FF763540056005685A
:102060004FF6FF7606EA02263543056070BD4163F0
:10207000704781637047C1637047016470470A46C7
:102080000021018B4FF68F73194011430183704774
:102090000A460021018B48F6FF7319404FF6FF7383
:1020A00003EA02231943018370470A460021818B0A
:1020B0004FF68F7319401143818370470A46002100
:1020C000818B48F6FF7319404FF6FF7303EA022332
:1020D0001943818370470A460021018B4FF6F7733D
:1020E00019401143018370470A460021018B4FF2CA
:1020F000FF7319404FF6FF7303EA0223194301836C
:1021000070470A460021818B4FF6F773194011433F
:10211000818370470A460021818B4FF2FF7319407B
:102120004FF6FF7303EA02231943818370470A467F
:102130000021018B4FF6FB73194011430183704757
:102140000A460021018B4FF6FF3319404FF6FF730B
:1021500003EA02231943018370470A460021818B59
:102160004FF6FB7319401143818370470A460021E3
:10217000818B4FF6FF3319404FF6FF7303EA0223BA
:102180001943818370470A460021018B4FF67F7304
:1021900019401143018370470A460021018BC1F3A6
:1021A0000E014FF6FF7303EA0223194301837047C0
:1021B0000A460021818B4FF67F73194011438183BA
:1021C00070470A460021818BC1F30E014FF6FF7361
:1021D00003EA02231943818370470A460021018CD8
:1021E0004FF6FD7319401143018470470A460021E0
:1021F000018C4FF6F77319401143018470470A466A
:102200000021018C4FF6DF7319404FF6FF7303EA8C
:1022100002131943018470470A460021018C4FF6CE
:102220007F7319404FF6FF7303EA021319430184C9
:1022300070470A460021018C4FF6FF5319404FF6B4
:10224000FF7303EA02231943018470470A46002101
:10225000018C4FF2FF7319404FF6FF7303EA02231C
:102260001943018470470A460021018C4DF6FF7323
:1022700019404FF6FF7303EA023319430184704794
:1022800030B5002301248C40A3B2048C9C43048409
:10229000048C02FA01F5ADB22C43048430BD30B594
:1022A000002304248C40A3B2048C9C430484048C3B
:1022B00002FA01F5ADB22C43048430BD828B4FF29B
:1022C000FF331A408283828B4FF6FF7303EA0123A8
:1022D0001A4382837047F0B50C4615460021002250
:1022E0000026078C4EF6FF7C07EA0C070784818BDB
:1022F000028C4FF6FF7707EA043640F6FF47394075
:102300004FF6FF7707EA052739434FF6FF7707EACD
:102310000337394345F6FF773A4046F480573A434E
:1023200081830284F0BD828B4FF6F3731A4082835F
:10233000828B0A4382837047F0B50C461546002114
:1023400000220026078C4FF6FF6C07EA0C07078473
:10235000818B028C4FF6FF7707EA04264FF60C7745
:1023600039404FF6FF7707EA03172F4339434FF2FF
:10237000FF573A4046F480773A4381830284F0BDA8
:10238000028B4FF2FF331A400283028B4FF6FF732A
:1023900003EA01231A4302837047F0B50C46154641
:1023A000002100220026078C4FF6EF7C07EA0C077D
:1023B0000784018B028C4FF6FF7707EA041640F67C
:1023C000FF4739404FF6FF7707EA033739434FF6A7
:1023D000FF7703E0000001400004014007EA052701
:1023E00039434FF65F773A4046F010073A4301838E
:1023F0000284F0BD028B4FF6F3731A400283028B06
:102400000A4302837047F0B50C46154600210022AE
:10241000068C4FF6FE773E400684018B028C4FF609
:102420000C7631407E1C06EA03162E4331434FF6EC
:10243000F576324044F00106324301830284F0BD58
:1024400070B505460C46208850B92389A28861885A
:102450002846FFF7D8FFE1882846FFF7CBFF25E0A5
:10246000208804280AD12389A28861882846FFF79A
:1024700094FFE1882846FFF783FF17E020880828AB
:102480000AD12389A28861882846FFF755FFE18891
:102490002846FFF748FF09E02389A288618828467B
:1024A000FFF719FFE1882846FFF708FF70BD0021FC
:1024B00001804180012181800021C180018170471C
:1024C0002DE9F04105460C4600260127608808B931
:1024D000022600E00026A088012801D1022700E0A2
:1024E00001272088A0B92389A28861882846FFF7A0
:1024F0008AFFE1882846FFF77DFF23893A46314667
:102500002846FFF74AFFE1882846FFF739FF13E026
:102510002389A28861882846FFF73FFFE188284683
:10252000FFF72EFF23893A4631462846FFF76BFF17
:10253000E1882846FFF75EFFBDE8F0810146486B61
:1025400070470146886B70470146C86B704701466B
:10255000086C70470A884B881A438B881A43CB88CB
:102560001A430B891A434B891A438B891A43A0F8E3
:10257000442070470021018041808180C180018119
:1025800041818181704731B1B0F8442042F400426A
:10259000A0F8442005E0B0F84420C2F30E02A0F8F1
:1025A0004420704721B1828842F00402828004E016
:1025B00082884FF6FB731A408280704721B182886F
:1025C00042F00102828004E082884FF6FE731A40D6
:1025D000828070471AB183890B43838102E083892B
:1025E0008B43838170478182704702460020138AA3
:1025F0000B400BB1012000E000207047CA4302826B
:10260000704730B50246002000230024158A05EAF1
:102610000103958905EA010413B10CB1012000E022
:10262000002030BDCA430282704741EA0203A0F88D
:10263000483070471AB183890B43838102E0838954
:102640008B438381704721B1828842F008028280E7
:1026500004E082884FF6F7731A4082807047018940
:102660004FF6F8721140018170470A460021018936
:102670004FF68F73194011430181704730B50446FE
:102680000D4629462046FFF7F0FF208940F007005D
:10269000208130BD2DE9F04104460D4616461F4607
:1026A000602D06D13B46012231462046FFF775FEDC
:1026B00005E03B46012231462046FFF7A4FE2946AD
:1026C0002046FFF7D2FF208940F007002081BDE8B7
:1026D000F08130B50C4600210189C9B24FF6FF7573
:1026E00005EA0325154325432943018130BD2DE922
:1026F000F04105460E4617469846002443463A46A2
:1027000031462846FFF7E5FF2C894FF6F870044064
:1027100044F007044FF68F70044044F070042C819D
:10272000BDE8F081F0B504460D4616461F463B460F
:10273000324629462046FFF7CCFF208940F48040EE
:102740002081F0BD82884FF68F731A408280828884
:102750000A438280704702894FF6F8731A4002815B
:1027600002890A430281704702894FF67F731A403B
:10277000028102890A4302817047F0B50C46154672
:102780001E460021002200230189028B038C4FF694
:10279000F877394021434FF6FC473A4040F20117A1
:1027A0003A434FF6DD773B404FF6FF7707EA0617CF
:1027B0002F433B43018102830384F0BD21B1828812
:1027C00042F08002828004E082884FF67F731A40D4
:1027D00082807047A0F8501070470000F9480068E8
:1027E00040F00100F74908600020F6490831086010
:1027F000F4480068F4490840F2490860F348091DAC
:102800000860F348EF4984310860F0481038091D2A
:102810000860EC48006820F48020EA490860002045
:10282000E8490C310860E7498C31086070470021A5
:10283000E44A921C117011460870704710B50146A9
:102840000022002300204A11012A02D1DD4C236816
:1028500008E0022A03D1DB4C7034236802E0D94C33
:102860007434236801F01F02012494401C400CB111
:10287000012000E0002010BD38B5002000900024A9
:10288000002500BF3120FFF7D9FF05460098401C06
:1028900000900098B0F5A04F01D0002DF2D031206B
:1028A000FFF7CCFF08B1012400E00024204638BD2A
:1028B00001460020C34A106820F0F80040EAC10039
:1028C00010607047C349086070470021BD4A7032EC
:1028D00011701170012802D004280AD104E00121EE
:1028E000B84A7032117005E00521B64A7032117095
:1028F00000E000BF00BF7047B7490860704770B57F
:10290000049C41EA82150126C6EB530645EA0645BA
:10291000054345EA0465AB4E361D356070BDAD49D3
:1029200008667047820142EA0172A64B84331A603E
:102930007047A8498866704710B5830143EA016370
:1029400043EA02739F4C8834236010BDA149086795
:102950007047A049C864704702460020994B08336D
:10296000186820F0EC6042EA01031843954B0833E5
:102970001860704702460020924B0833186820F018
:10298000784042EA010318438E4B083318607047C1
:10299000014600208B4A0832106820F003000843EB
:1029A0001060704787480830006800F00C007047DE
:1029B00001460020834A0832106820F0F0000843E6
:1029C00010607047014600207E4A0832106820F4EB
:1029D000E05008431060704701460020794A0832F1
:1029E000106820F4604040EAC10010607047F0B504
:1029F000002100220024022500260223714F0837FF
:102A00003F6807F00C0121B1042905D0082937D10E
:102A100005E0724F076036E0714F076033E0694FA1
:102A20003F1D3F68C7F38056664F3F1D3F6807F064
:102A30003F036EB16A4FB7FBF3F7DFF888C10CF1C3
:102A4000040CDCF800C0CCF3881C07FB0CF40CE091
:102A5000624FB7FBF3F7DFF86CC10CF1040CDCF844
:102A600000C0CCF3881C07FB0CF4564F3F1D3F6899
:102A7000C7F301477F1C7D00B4FBF5F7076002E058
:102A8000564F076000BF00BF4E4F08373F6807F042
:102A9000F0010909534F7A5C0768D7404760494FF6
:102AA00008373F6807F4E051890A4E4F7A5C47685F
:102AB000D7408760434F08373F6807F46041490BB0
:102AC000484F7A5C4768D740C760F0BD002100F4EA
:102AD0004072B2F5407F0AD13A4A0832116821F4B7
:102AE000F811414A02401143364A08321160354A12
:102AF00070321268C0F30B031A43324B70331A6002
:102B00007047354944390860704733494039086097
:102B1000704736490860704701460020294A8C32C8
:102B2000106820F01F004A1E1043264A8C321060A5
:102B3000704701460020234A8C32106820F4F85078
:102B40004A1E40EA02201F4A8C321060704701463C
:102B500000201C4A8C32106820F44010084310609A
:102B6000704701460020174A8C32106820F440005C
:102B700008431060704701460020124A8C321068EA
:102B800020F44030084310607047194908607047CE
:102B900039B10C4A3032126802430A4B30331A60A2
:102BA00006E0084A303212688243064B30331A601E
:102BB0007047F9B1034A343212680243014B34338F
:102BC0001A601CE000380240FFFFF6EA10300024D3
:102BD0000030002000004742800E47420024F400ED
:102BE00000127A0052000020FFFCFF0F5C014742F8
:102BF000E01147428F4A126882438E4B1A60704739
:102C000039B18C4A121D126802438A4B1B1D1A608F
:102C100006E0884A121D12688243864B1B1D1A600B
:102C2000704739B1834A0C3212680243814B0C332E
:102C30001A6006E07F4A0C32126882437D4B0C33E7
:102C40001A60704739B17B4A103212680243794BDF
:102C500010331A6006E0774A103212688243754BCF
:102C600010331A60704739B1724A243A126802432D
:102C7000704B243B1A6006E06E4A243A1268824385
:102C80006C4B243B1A60704739B16A4A203A12688B
:102C90000243684B203B1A6006E0664A203A1268FD
:102CA0008243644B203B1A60704739B1614A1C3A39
:102CB000126802435F4B1C3B1A6006E05D4A1C3AF7
:102CC000126882435B4B1C3B1A60704739B1594A0A
:102CD000143A12680243574B143B1A6006E0554AF7
:102CE000143A12688243534B143B1A60704739B14F
:102CF000504A103A126802434E4B103B1A6006E0ED
:102D00004C4A103A126882434A4B103B1A60704793
:102D100039B1484A1C3212680243464B1C331A60D0
:102D200006E0444A1C3212688243424B1C331A604C
:102D3000704739B13F4A2032126802433D4B20337D
:102D40001A6006E03B4A203212688243394B203336
:102D50001A60704739B1374A243212680243354B42
:102D600024331A6006E0334A243212688243314B1E
:102D700024331A60704739B12E4A2C32126802434C
:102D80002C4B2C331A6006E02A4A2C3212688243FC
:102D9000284B2C331A60704739B1264A30321268FA
:102DA0000243244B30331A6006E0224A3032126864
:102DB0008243204B30331A607047012808D11D49E7
:102DC0003C31096841F008011A4A3C32116007E0C1
:102DD00018493C31096821F00801164A3C3211605B
:102DE000704739B1134A273A12780243114B273BF7
:102DF0001A7006E00F4A273A127882430D4B273BA0
:102E00001A7070470B484030006840F080700949E4
:102E100040310860704701460020064A283A12688F
:102E20000A400AB1012000E000207047014926391C
:102E300008707047343802407047704770477047D9
:102E40007047754600F02CF8AE46050069465346BB
:102E500020F00700854618B020B5FEF777FABDE8E8
:102E600020404FF000064FF000074FF000084FF0F1
:102E7000000B21F00701AC46ACE8C009ACE8C00982
:102E8000ACE8C009ACE8C0098D46704710B50446EF
:102E9000AFF300802046BDE81040FDF7BEB900004A
:102EA000004870472C0100204FF04070E1EE100AFE
:102EB00070470000D42E00080000002064000000CD
:102EC000C4010008382F0008640000202C0700000F
:102ED000E0010008007A030A000000000000000082
:102EE00001020304060708090000000000000000BA
:102EF00000000000000000000000000000000000D2
:102F000000000000000000000000000000000000C1
:102F100000000000000000000000000000000000B1
:102F20000000000000000000000001020304010294
:082F3000030406070809000074
:040000050800018965
:00000001FF
